{
  "_format": "hh-sol-artifact-1",
  "contractName": "CheckPay",
  "sourceName": "contracts/Pay.sol",
  "abi": [
    {
      "anonymous": false,
      "inputs": [
        {
          "indexed": true,
          "internalType": "address",
          "name": "addr",
          "type": "address"
        },
        {
          "indexed": false,
          "internalType": "uint256",
          "name": "val",
          "type": "uint256"
        }
      ],
      "name": "transferMark",
      "type": "event"
    },
    {
      "constant": false,
      "inputs": [],
      "name": "recharge",
      "outputs": [],
      "payable": true,
      "stateMutability": "payable",
      "type": "function"
    },
    {
      "constant": false,
      "inputs": [
        {
          "internalType": "address payable",
          "name": "receiver",
          "type": "address"
        }
      ],
      "name": "withdraw",
      "outputs": [],
      "payable": false,
      "stateMutability": "nonpayable",
      "type": "function"
    }
  ],
  "bytecode": "0x608060405234801561001057600080fd5b50610159806100206000396000f3fe6080604052600436106100295760003560e01c80634cddae281461002e57806351cff8d914610038575b600080fd5b61003661006b565b005b34801561004457600080fd5b506100366004803603602081101561005b57600080fd5b50356001600160a01b031661006d565b565b6040805147815290516001600160a01b038316917f7c0de677e4da8a78622f29309347c50eb989a0426a53be01d2d7441f519a30fa919081900360200190a26040516001600160a01b038216904780156108fc02916000818181858888f193505050501580156100e1573d6000803e3d6000fd5b506040805147815290516001600160a01b038316917f7c0de677e4da8a78622f29309347c50eb989a0426a53be01d2d7441f519a30fa919081900360200190a25056fea265627a7a72315820332148f3eafcd7ad8f53c4c20d9c1ab1ba50363d353811475d6f34c5168ac9ff64736f6c63430005110032",
  "linkReferences": {},
  "deployedLinkReferences": {}
}