{
  "_format": "hh-sol-artifact-1",
  "contractName": "CommissionPrivilegeTest",
  "sourceName": "contracts/CommissionPrivilegeTest.sol",
  "abi": [
    {
      "inputs": [
        {
          "internalType": "address",
          "name": "account",
          "type": "address"
        }
      ],
      "name": "add",
      "outputs": [],
      "stateMutability": "payable",
      "type": "function"
    },
    {
      "inputs": [],
      "name": "foo",
      "outputs": [],
      "stateMutability": "payable",
      "type": "function"
    },
    {
      "inputs": [
        {
          "internalType": "uint256",
          "name": "s1",
          "type": "uint256"
        },
        {
          "internalType": "uint256",
          "name": "e1",
          "type": "uint256"
        },
        {
          "internalType": "uint256",
          "name": "s2",
          "type": "uint256"
        },
        {
          "internalType": "uint256",
          "name": "e2",
          "type": "uint256"
        }
      ],
      "name": "par",
      "outputs": [],
      "stateMutability": "nonpayable",
      "type": "function"
    },
    {
      "inputs": [
        {
          "internalType": "uint256",
          "name": "start",
          "type": "uint256"
        },
        {
          "internalType": "uint256",
          "name": "end",
          "type": "uint256"
        }
      ],
      "name": "par_add",
      "outputs": [],
      "stateMutability": "nonpayable",
      "type": "function"
    },
    {
      "inputs": [
        {
          "internalType": "uint256",
          "name": "s1",
          "type": "uint256"
        },
        {
          "internalType": "uint256",
          "name": "e1",
          "type": "uint256"
        },
        {
          "internalType": "uint256",
          "name": "s2",
          "type": "uint256"
        },
        {
          "internalType": "uint256",
          "name": "e2",
          "type": "uint256"
        }
      ],
      "name": "par_add_del",
      "outputs": [],
      "stateMutability": "nonpayable",
      "type": "function"
    },
    {
      "inputs": [
        {
          "internalType": "uint256",
          "name": "start",
          "type": "uint256"
        },
        {
          "internalType": "uint256",
          "name": "end",
          "type": "uint256"
        }
      ],
      "name": "par_del",
      "outputs": [],
      "stateMutability": "nonpayable",
      "type": "function"
    },
    {
      "inputs": [
        {
          "internalType": "uint256",
          "name": "l",
          "type": "uint256"
        },
        {
          "internalType": "uint256",
          "name": "r",
          "type": "uint256"
        },
        {
          "internalType": "uint256",
          "name": "d",
          "type": "uint256"
        }
      ],
      "name": "rec",
      "outputs": [],
      "stateMutability": "payable",
      "type": "function"
    },
    {
      "inputs": [
        {
          "internalType": "address",
          "name": "account",
          "type": "address"
        }
      ],
      "name": "remove",
      "outputs": [],
      "stateMutability": "payable",
      "type": "function"
    },
    {
      "inputs": [
        {
          "internalType": "uint256",
          "name": "",
          "type": "uint256"
        }
      ],
      "name": "ss",
      "outputs": [
        {
          "internalType": "uint256",
          "name": "",
          "type": "uint256"
        }
      ],
      "stateMutability": "view",
      "type": "function"
    }
  ],
  "bytecode": "0x608060405234801561001057600080fd5b506107bc806100206000396000f3fe6080604052600436106100865760003560e01c8063989d12b611610059578063989d12b6146100f3578063c29855781461009e578063c2b114aa14610132578063d626f80714610145578063f33547201461016557600080fd5b80630a3b0a4f1461008b57806329092d0e146100a05780632b44ec00146100b35780633ca87b6b146100d3575b600080fd5b61009e6100993660046105dd565b610185565b005b61009e6100ae3660046105dd565b610234565b3480156100bf57600080fd5b5061009e6100ce36600461060d565b6102ad565b3480156100df57600080fd5b5061009e6100ee36600461062f565b6102dd565b3480156100ff57600080fd5b5061012061010e366004610661565b60006020819052908152604090205481565b60405190815260200160405180910390f35b61009e61014036600461067a565b610442565b34801561015157600080fd5b5061009e61016036600461062f565b6104d6565b34801561017157600080fd5b5061009e61018036600461060d565b6105af565b6040805160018082528183019092526000916020808301908036833701905050905081816000815181106101bb576101bb6106a6565b6001600160a01b0390921660209283029190910190910152604051630809469f60e11b8152600161011160931b01906310128d3e906101fe9084906004016106bc565b600060405180830381600087803b15801561021857600080fd5b505af115801561022c573d6000803e3d6000fd5b505050505050565b60408051600180825281830190925260009160208083019080368337019050509050818160008151811061026a5761026a6106a6565b6001600160a01b039092166020928302919091019091015260405163694996db60e11b8152600161011160931b019063d2932db6906101fe9084906004016106bc565b815b818110156102d857600081815260208190526040812055806102d08161071f565b9150506102af565b505050565b604051630799aa3960e51b81526004810185905260248101849052309063f335472090604401600060405180830381600087803b15801561031d57600080fd5b505af1158015610331573d6000803e3d6000fd5b5050604051620ad13b60ea1b81526004810185905260248101849052309250632b44ec009150604401600060405180830381600087803b15801561037457600080fd5b505af1158015610388573d6000803e3d6000fd5b5050604051620ad13b60ea1b81526004810187905260248101869052309250632b44ec0091506044015b600060405180830381600087803b1580156103cc57600080fd5b505af11580156103e0573d6000803e3d6000fd5b5050604051630799aa3960e51b8152600481018590526024810184905230925063f33547209150604401600060405180830381600087803b15801561042457600080fd5b505af1158015610438573d6000803e3d6000fd5b5050505050505050565b8060000361047b57825b82811015610475576000818152602081905260408120558061046d8161071f565b91505061044c565b50505050565b825b828110156104b157610490600283610738565b600082815260208190526040902055806104a98161071f565b91505061047d565b506102d86104c084600161075a565b6104cb600185610773565b610140600185610773565b604051630799aa3960e51b81526004810185905260248101849052309063f335472090604401600060405180830381600087803b15801561051657600080fd5b505af115801561052a573d6000803e3d6000fd5b5050604051620ad13b60ea1b81526004810187905260248101869052309250632b44ec009150604401600060405180830381600087803b15801561056d57600080fd5b505af1158015610581573d6000803e3d6000fd5b5050604051620ad13b60ea1b81526004810185905260248101849052309250632b44ec0091506044016103b2565b815b818110156102d857600081815260208190526040902060019055806105d58161071f565b9150506105b1565b6000602082840312156105ef57600080fd5b81356001600160a01b038116811461060657600080fd5b9392505050565b6000806040838503121561062057600080fd5b50508035926020909101359150565b6000806000806080858703121561064557600080fd5b5050823594602084013594506040840135936060013592509050565b60006020828403121561067357600080fd5b5035919050565b60008060006060848603121561068f57600080fd5b505081359360208301359350604090920135919050565b634e487b7160e01b600052603260045260246000fd5b6020808252825182820181905260009190848201906040850190845b818110156106fd5783516001600160a01b0316835292840192918401916001016106d8565b50909695505050505050565b634e487b7160e01b600052601160045260246000fd5b60006001820161073157610731610709565b5060010190565b60008261075557634e487b7160e01b600052601260045260246000fd5b500690565b8082018082111561076d5761076d610709565b92915050565b8181038181111561076d5761076d61070956fea26469706673582212201a1e658a618769876588089d50f6ade62ca4bd272438b77009675857fc15cb9e64736f6c63430008130033",
  "linkReferences": {},
  "deployedLinkReferences": {}
}