{
  "_format": "hh-sol-artifact-1",
  "contractName": "AdvancedTokenVote1202",
  "sourceName": "contracts/VoteTokenTest.sol",
  "abi": [
    {
      "inputs": [],
      "stateMutability": "nonpayable",
      "type": "constructor"
    },
    {
      "anonymous": false,
      "inputs": [
        {
          "indexed": false,
          "internalType": "uint256",
          "name": "issueId",
          "type": "uint256"
        },
        {
          "indexed": false,
          "internalType": "bool",
          "name": "newIsOpen",
          "type": "bool"
        }
      ],
      "name": "OnStatusChange",
      "type": "event"
    },
    {
      "anonymous": false,
      "inputs": [
        {
          "indexed": false,
          "internalType": "uint256",
          "name": "issueId",
          "type": "uint256"
        },
        {
          "indexed": true,
          "internalType": "address",
          "name": "_from",
          "type": "address"
        },
        {
          "indexed": false,
          "internalType": "uint256",
          "name": "_value",
          "type": "uint256"
        }
      ],
      "name": "OnVote",
      "type": "event"
    },
    {
      "inputs": [
        {
          "internalType": "uint256",
          "name": "issueId",
          "type": "uint256"
        }
      ],
      "name": "availableOptions",
      "outputs": [
        {
          "internalType": "uint256[]",
          "name": "options_",
          "type": "uint256[]"
        }
      ],
      "stateMutability": "view",
      "type": "function"
    },
    {
      "inputs": [
        {
          "internalType": "uint256",
          "name": "issueId",
          "type": "uint256"
        },
        {
          "internalType": "address",
          "name": "addr",
          "type": "address"
        }
      ],
      "name": "ballotOf",
      "outputs": [
        {
          "internalType": "uint256",
          "name": "option",
          "type": "uint256"
        }
      ],
      "stateMutability": "view",
      "type": "function"
    },
    {
      "inputs": [
        {
          "internalType": "uint256",
          "name": "",
          "type": "uint256"
        },
        {
          "internalType": "address",
          "name": "",
          "type": "address"
        }
      ],
      "name": "ballots",
      "outputs": [
        {
          "internalType": "uint256",
          "name": "",
          "type": "uint256"
        }
      ],
      "stateMutability": "view",
      "type": "function"
    },
    {
      "inputs": [
        {
          "internalType": "uint256",
          "name": "issueId",
          "type": "uint256"
        },
        {
          "internalType": "address",
          "name": "_tokenAddr",
          "type": "address"
        },
        {
          "internalType": "uint256[]",
          "name": "options_",
          "type": "uint256[]"
        },
        {
          "internalType": "address[]",
          "name": "qualifiedVoters_",
          "type": "address[]"
        },
        {
          "internalType": "string",
          "name": "issueDesc_",
          "type": "string"
        }
      ],
      "name": "createIssue",
      "outputs": [],
      "stateMutability": "nonpayable",
      "type": "function"
    },
    {
      "inputs": [
        {
          "internalType": "uint256",
          "name": "issueId",
          "type": "uint256"
        }
      ],
      "name": "getStatus",
      "outputs": [
        {
          "internalType": "bool",
          "name": "isOpen_",
          "type": "bool"
        }
      ],
      "stateMutability": "view",
      "type": "function"
    },
    {
      "inputs": [
        {
          "internalType": "uint256",
          "name": "issueId",
          "type": "uint256"
        }
      ],
      "name": "issueDescription",
      "outputs": [
        {
          "internalType": "string",
          "name": "desc",
          "type": "string"
        }
      ],
      "stateMutability": "view",
      "type": "function"
    },
    {
      "inputs": [
        {
          "internalType": "uint256",
          "name": "",
          "type": "uint256"
        }
      ],
      "name": "issueDescriptions",
      "outputs": [
        {
          "internalType": "string",
          "name": "",
          "type": "string"
        }
      ],
      "stateMutability": "view",
      "type": "function"
    },
    {
      "inputs": [
        {
          "internalType": "uint256",
          "name": "issueId",
          "type": "uint256"
        },
        {
          "internalType": "uint256",
          "name": "option",
          "type": "uint256"
        }
      ],
      "name": "optionDescription",
      "outputs": [
        {
          "internalType": "string",
          "name": "desc",
          "type": "string"
        }
      ],
      "stateMutability": "view",
      "type": "function"
    },
    {
      "inputs": [
        {
          "internalType": "uint256",
          "name": "issueId",
          "type": "uint256"
        },
        {
          "internalType": "bool",
          "name": "isOpen_",
          "type": "bool"
        }
      ],
      "name": "setStatus",
      "outputs": [
        {
          "internalType": "bool",
          "name": "success",
          "type": "bool"
        }
      ],
      "stateMutability": "nonpayable",
      "type": "function"
    },
    {
      "inputs": [
        {
          "internalType": "uint256",
          "name": "issueId",
          "type": "uint256"
        },
        {
          "internalType": "uint256",
          "name": "option",
          "type": "uint256"
        }
      ],
      "name": "vote",
      "outputs": [
        {
          "internalType": "bool",
          "name": "success",
          "type": "bool"
        }
      ],
      "stateMutability": "nonpayable",
      "type": "function"
    },
    {
      "inputs": [
        {
          "internalType": "uint256",
          "name": "issueId",
          "type": "uint256"
        },
        {
          "internalType": "address",
          "name": "addr",
          "type": "address"
        }
      ],
      "name": "weightOf",
      "outputs": [
        {
          "internalType": "uint256",
          "name": "weight",
          "type": "uint256"
        }
      ],
      "stateMutability": "view",
      "type": "function"
    },
    {
      "inputs": [
        {
          "internalType": "uint256",
          "name": "",
          "type": "uint256"
        },
        {
          "internalType": "uint256",
          "name": "",
          "type": "uint256"
        }
      ],
      "name": "weightedVoteCounts",
      "outputs": [
        {
          "internalType": "uint256",
          "name": "",
          "type": "uint256"
        }
      ],
      "stateMutability": "view",
      "type": "function"
    },
    {
      "inputs": [
        {
          "internalType": "uint256",
          "name": "issueId",
          "type": "uint256"
        },
        {
          "internalType": "uint256",
          "name": "option",
          "type": "uint256"
        }
      ],
      "name": "weightedVoteCountsOf",
      "outputs": [
        {
          "internalType": "uint256",
          "name": "count",
          "type": "uint256"
        }
      ],
      "stateMutability": "view",
      "type": "function"
    },
    {
      "inputs": [
        {
          "internalType": "uint256",
          "name": "",
          "type": "uint256"
        },
        {
          "internalType": "address",
          "name": "",
          "type": "address"
        }
      ],
      "name": "weights",
      "outputs": [
        {
          "internalType": "uint256",
          "name": "",
          "type": "uint256"
        }
      ],
      "stateMutability": "view",
      "type": "function"
    },
    {
      "inputs": [
        {
          "internalType": "uint256",
          "name": "issueId",
          "type": "uint256"
        }
      ],
      "name": "winningOption",
      "outputs": [
        {
          "internalType": "uint256",
          "name": "option",
          "type": "uint256"
        }
      ],
      "stateMutability": "view",
      "type": "function"
    }
  ],
  "bytecode": "0x60806040523480156200001157600080fd5b506040805180820190915260028152614e6f60f01b60208083019190915260016000526000805160206200122483398151915290527f79c06e8c99a667adda63c5fa6f05695d29630fc62ad2dd069fa929d5714de89d90620000749082620002c3565b5060408051808201909152600d81526c5965732c20313030206d6f726560981b60208083019190915260026000526000805160206200122483398151915290527f7e955e967b2c774fdefd0a6f70cfe851a750a8f48fafda490b70fc148e628d0690620000e29082620002c3565b5060408051808201909152600d81526c5965732c20323030206d6f726560981b60208083019190915260036000526000805160206200122483398151915290527fa2b7d6385dee48a2ead7459b79e810e06dfda3a93433eedcc81fe84786be084e90620001509082620002c3565b506040805180820190915260028152614e6f60f01b60208083019190915260016000526000805160206200124483398151915290527f7fc34355029a161f70aeee0386d9a2fb9a2518cf3f40dfaefce746c3a701bdb790620001b39082620002c3565b5060408051808201909152600381526259657360e81b60208083019190915260026000526000805160206200124483398151915290527fe3676086f4a883dc16130d16abf278f5c150e68c2617fc316cdd91414d82ea7490620002179082620002c3565b506200038f565b634e487b7160e01b600052604160045260246000fd5b600181811c908216806200024957607f821691505b6020821081036200026a57634e487b7160e01b600052602260045260246000fd5b50919050565b601f821115620002be57600081815260208120601f850160051c81016020861015620002995750805b601f850160051c820191505b81811015620002ba57828155600101620002a5565b5050505b505050565b81516001600160401b03811115620002df57620002df6200021e565b620002f781620002f0845462000234565b8462000270565b602080601f8311600181146200032f5760008415620003165750858301515b600019600386901b1c1916600185901b178555620002ba565b600085815260208120601f198616915b8281101562000360578886015182559484019460019091019084016200033f565b50858210156200037f5787850151600019600388901b60f8161c191681555b5050505050600190811b01905550565b610e85806200039f6000396000f3fe608060405234801561001057600080fd5b50600436106100f55760003560e01c80637f7bc23a11610097578063b93a4a9f11610066578063b93a4a9f14610278578063c36fff2d1461028b578063ea2bc862146102ab578063f3fd8648146102be57600080fd5b80637f7bc23a146101f15780638719e8ac1461021c5780638935ced51461022f578063b384abef1461026557600080fd5b806332ec991c116100d357806332ec991c146101555780634164c367146101685780635c622a0e146101935780636e6a1dc3146101c657600080fd5b80630dca7ed8146100fa578063157a68df146101205780631e01a17214610135575b600080fd5b61010d610108366004610904565b6102e9565b6040519081526020015b60405180910390f35b61013361012e366004610a86565b6103db565b005b610148610143366004610904565b610516565b6040516101179190610b80565b61010d610163366004610bce565b6105b8565b61010d610176366004610bce565b600460209081526000928352604080842090915290825290205481565b6101b66101a1366004610904565b60009081526003602052604090205460ff1690565b6040519015158152602001610117565b61010d6101d4366004610bfa565b600091825260056020908152604080842092845291905290205490565b61010d6101ff366004610bce565b600660209081526000928352604080842090915290825290205481565b6101b661022a366004610c1c565b6105e2565b61010d61023d366004610bce565b60009182526004602090815260408084206001600160a01b0393909316845291905290205490565b6101b6610273366004610bfa565b61063f565b610148610286366004610904565b6106fb565b61029e610299366004610904565b610795565b6040516101179190610c51565b6101486102b9366004610bfa565b6107f6565b61010d6102cc366004610bfa565b600560209081526000928352604080842090915290825290205481565b60008060015b6000848152600160205260409020548110156103a757600084815260016020526040812080548390811061032557610325610c95565b90600052602060002001549050600060016000878152602001908152602001600020848154811061035857610358610c95565b6000918252602080832090910154888352600582526040808420828552808452818520548786529352909220549192501015610392578293505b5050808061039f90610cc1565b9150506102ef565b5060008381526001602052604090208054829081106103c8576103c8610c95565b9060005260206000200154915050919050565b6002835110156103ea57600080fd5b60008581526001602090815260409091208451610409928601906108a4565b506000858152600360205260408120805460ff1916600117905584905b83518110156104f457600084828151811061044357610443610c95565b60209081029190910101516040516370a0823160e01b81526001600160a01b038083166004830152919250908416906370a0823190602401602060405180830381865afa158015610498573d6000803e3d6000fd5b505050506040513d601f19601f820116820180604052508101906104bc9190610cda565b60008981526004602090815260408083206001600160a01b0390951683529390529190912055806104ec81610cc1565b915050610426565b50600086815260208190526040902061050d8382610d7c565b50505050505050565b600081815260208190526040902080546060919061053390610cf3565b80601f016020809104026020016040519081016040528092919081815260200182805461055f90610cf3565b80156105ac5780601f10610581576101008083540402835291602001916105ac565b820191906000526020600020905b81548152906001019060200180831161058f57829003601f168201915b50505050509050919050565b60008281526006602090815260408083206001600160a01b03851684529091529020545b92915050565b6000828152600360209081526040808320805460ff19168515159081179091558151868152928301527fbe03ebcfeb69534c6616c1e7595185e483f75f4b68dbea40202718e5e6739e9a910160405180910390a150600192915050565b60008281526003602052604081205460ff1661065a57600080fd5b6000838152600460209081526040808320338452825280832054868452600583528184208685529092528220805491928392610697908490610e3c565b90915550506000848152600660209081526040808320338085529083529281902086905580518781529182018690527f8dbfd85a58723efc11bb6869a671982a65ec9cd32e081f290076566dca6b9be5910160405180910390a25060019392505050565b6000602081905290815260409020805461071490610cf3565b80601f016020809104026020016040519081016040528092919081815260200182805461074090610cf3565b801561078d5780601f106107625761010080835404028352916020019161078d565b820191906000526020600020905b81548152906001019060200180831161077057829003601f168201915b505050505081565b6000818152600160209081526040918290208054835181840281018401909452808452606093928301828280156105ac57602002820191906000526020600020905b8154815260200190600101908083116107d75750505050509050919050565b6000828152600260209081526040808320848452909152902080546060919061081e90610cf3565b80601f016020809104026020016040519081016040528092919081815260200182805461084a90610cf3565b80156108975780601f1061086c57610100808354040283529160200191610897565b820191906000526020600020905b81548152906001019060200180831161087a57829003601f168201915b5050505050905092915050565b8280548282559060005260206000209081019282156108df579160200282015b828111156108df5782518255916020019190600101906108c4565b506108eb9291506108ef565b5090565b5b808211156108eb57600081556001016108f0565b60006020828403121561091657600080fd5b5035919050565b80356001600160a01b038116811461093457600080fd5b919050565b634e487b7160e01b600052604160045260246000fd5b604051601f8201601f1916810167ffffffffffffffff8111828210171561097857610978610939565b604052919050565b600067ffffffffffffffff82111561099a5761099a610939565b5060051b60200190565b600082601f8301126109b557600080fd5b813560206109ca6109c583610980565b61094f565b82815260059290921b840181019181810190868411156109e957600080fd5b8286015b84811015610a0b576109fe8161091d565b83529183019183016109ed565b509695505050505050565b600082601f830112610a2757600080fd5b813567ffffffffffffffff811115610a4157610a41610939565b610a54601f8201601f191660200161094f565b818152846020838601011115610a6957600080fd5b816020850160208301376000918101602001919091529392505050565b600080600080600060a08688031215610a9e57600080fd5b853594506020610aaf81880161091d565b9450604087013567ffffffffffffffff80821115610acc57600080fd5b818901915089601f830112610ae057600080fd5b8135610aee6109c582610980565b81815260059190911b8301840190848101908c831115610b0d57600080fd5b938501935b82851015610b2b57843582529385019390850190610b12565b975050506060890135925080831115610b4357600080fd5b610b4f8a848b016109a4565b94506080890135925080831115610b6557600080fd5b5050610b7388828901610a16565b9150509295509295909350565b600060208083528351808285015260005b81811015610bad57858101830151858201604001528201610b91565b506000604082860101526040601f19601f8301168501019250505092915050565b60008060408385031215610be157600080fd5b82359150610bf16020840161091d565b90509250929050565b60008060408385031215610c0d57600080fd5b50508035926020909101359150565b60008060408385031215610c2f57600080fd5b8235915060208301358015158114610c4657600080fd5b809150509250929050565b6020808252825182820181905260009190848201906040850190845b81811015610c8957835183529284019291840191600101610c6d565b50909695505050505050565b634e487b7160e01b600052603260045260246000fd5b634e487b7160e01b600052601160045260246000fd5b600060018201610cd357610cd3610cab565b5060010190565b600060208284031215610cec57600080fd5b5051919050565b600181811c90821680610d0757607f821691505b602082108103610d2757634e487b7160e01b600052602260045260246000fd5b50919050565b601f821115610d7757600081815260208120601f850160051c81016020861015610d545750805b601f850160051c820191505b81811015610d7357828155600101610d60565b5050505b505050565b815167ffffffffffffffff811115610d9657610d96610939565b610daa81610da48454610cf3565b84610d2d565b602080601f831160018114610ddf5760008415610dc75750858301515b600019600386901b1c1916600185901b178555610d73565b600085815260208120601f198616915b82811015610e0e57888601518255948401946001909101908401610def565b5085821015610e2c5787850151600019600388901b60f8161c191681555b5050505050600190811b01905550565b808201808211156105dc576105dc610cab56fea2646970667358221220962ec753cc261bdde7696ab1393ef6024a53148f207b5f8cb80f5100f884329764736f6c63430008130033ac33ff75c19e70fe83507db0d683fd3465c996598dc972688b7ace676c89077be90b7bceb6e7df5418fb78d8ee546e97c83a08bbccc01a0644d599ccd2a7c2e0",
  "linkReferences": {},
  "deployedLinkReferences": {}
}