{
  "_format": "hh-sol-artifact-1",
  "contractName": "AdminTestContract",
  "sourceName": "contracts/AdminTestContract.sol",
  "abi": [
    {
      "inputs": [],
      "stateMutability": "nonpayable",
      "type": "constructor"
    },
    {
      "inputs": [],
      "name": "EVIL_ADDR",
      "outputs": [
        {
          "internalType": "address",
          "name": "",
          "type": "address"
        }
      ],
      "stateMutability": "view",
      "type": "function"
    },
    {
      "inputs": [],
      "name": "clearAdmin",
      "outputs": [],
      "stateMutability": "nonpayable",
      "type": "function"
    },
    {
      "inputs": [
        {
          "internalType": "bytes",
          "name": "code",
          "type": "bytes"
        }
      ],
      "name": "deployAndHijackAdmin",
      "outputs": [
        {
          "internalType": "address",
          "name": "",
          "type": "address"
        }
      ],
      "stateMutability": "payable",
      "type": "function"
    },
    {
      "inputs": [],
      "name": "hijackAdmin",
      "outputs": [],
      "stateMutability": "payable",
      "type": "function"
    }
  ],
  "bytecode": "0x608060405234801561001057600080fd5b50610019610386565b6040516364efb22b60e01b81523060048201526001609c1b9061011160931b906364efb22b90602401602060405180830381865afa15801561005f573d6000803e3d6000fd5b505050506040513d601f19601f8201168201806040525081019061008391906103e7565b6001600160a01b0316036100de5760405162461bcd60e51b815260206004820152601560248201527f726571756972652061646d696e20213d206576696c000000000000000000000060448201526064015b60405180910390fd5b60408051600481526024810182526020810180516001600160e01b031663022c2cc560e61b179052905160009130916101179190610417565b6000604051808303816000865af19150503d8060008114610154576040519150601f19603f3d011682016040523d82523d6000602084013e610159565b606091505b50509050806101aa5760405162461bcd60e51b815260206004820152601560248201527f73657441646d696e206e6576657220726576657274000000000000000000000060448201526064016100d5565b6040516364efb22b60e01b815230600482015260009061011160931b906364efb22b90602401602060405180830381865afa1580156101ed573d6000803e3d6000fd5b505050506040513d601f19601f8201168201806040525081019061021191906103e7565b6001600160a01b0316036102675760405162461bcd60e51b815260206004820152601560248201527f726571756972652061646d696e20213d206e756c6c000000000000000000000060448201526064016100d5565b60405163c55b6bb760e01b81523060048201526000602482015261011160931b9063c55b6bb790604401600060405180830381600087803b1580156102ab57600080fd5b505af11580156102bf573d6000803e3d6000fd5b50506040516364efb22b60e01b81523060048201526000925061011160931b91506364efb22b90602401602060405180830381865afa158015610306573d6000803e3d6000fd5b505050506040513d601f19601f8201168201806040525081019061032a91906103e7565b6001600160a01b0316146103805760405162461bcd60e51b815260206004820152601560248201527f726571756972652061646d696e203d3d206e756c6c000000000000000000000060448201526064016100d5565b50610446565b60405163c55b6bb760e01b81523360048201526001609c1b602482015261011160931b9063c55b6bb790604401600060405180830381600087803b1580156103cd57600080fd5b505af11580156103e1573d6000803e3d6000fd5b50505050565b6000602082840312156103f957600080fd5b81516001600160a01b038116811461041057600080fd5b9392505050565b6000825160005b81811015610438576020818601810151858301520161041e565b506000920191825250919050565b61036e806104556000396000f3fe60806040526004361061003f5760003560e01c80638b0b3140146100445780638ef99ff51461005b578063b61b2fe91461008a578063ce0a10db14610092575b600080fd5b34801561005057600080fd5b506100596100aa565b005b61006e610069366004610287565b610109565b6040516001600160a01b03909116815260200160405180910390f35b61005961023f565b34801561009e57600080fd5b5061006e6001609c1b81565b60405163c55b6bb760e01b81523060048201526000602482015261011160931b9063c55b6bb7906044015b600060405180830381600087803b1580156100ef57600080fd5b505af1158015610103573d6000803e3d6000fd5b50505050565b8051600090819060019034906020860182f09250823b61012857600091505b816101695760405162461bcd60e51b815260206004820152600d60248201526c18dc99585d194819985a5b1959609a1b604482015260640160405180910390fd5b60405163c55b6bb760e01b81526001600160a01b03841660048201526001609c1b602482015261011160931b9063c55b6bb790604401600060405180830381600087803b1580156101b957600080fd5b505af11580156101cd573d6000803e3d6000fd5b505060405163c55b6bb760e01b81526001600160a01b03861660048201526000602482015261011160931b925063c55b6bb79150604401600060405180830381600087803b15801561021e57600080fd5b505af1158015610232573d6000803e3d6000fd5b5094979650505050505050565b60405163c55b6bb760e01b81523360048201526001609c1b602482015261011160931b9063c55b6bb7906044016100d5565b634e487b7160e01b600052604160045260246000fd5b60006020828403121561029957600080fd5b813567ffffffffffffffff808211156102b157600080fd5b818401915084601f8301126102c557600080fd5b8135818111156102d7576102d7610271565b604051601f8201601f19908116603f011681019083821181831017156102ff576102ff610271565b8160405282815287602084870101111561031857600080fd5b82602086016020830137600092810160200192909252509594505050505056fea26469706673582212206f43748e75006c861cccad01c848c7ccb7f4af8e38eb4dcca56d01ae584e1e9464736f6c63430008130033",
  "linkReferences": {},
  "deployedLinkReferences": {}
}