{
  "_format": "hh-sol-artifact-1",
  "contractName": "StaticCrossSpace",
  "sourceName": "contracts/StaticCrossSpace.sol",
  "abi": [
    {
      "inputs": [],
      "stateMutability": "nonpayable",
      "type": "constructor"
    },
    {
      "inputs": [],
      "name": "run",
      "outputs": [],
      "stateMutability": "payable",
      "type": "function"
    },
    {
      "inputs": [],
      "name": "run2",
      "outputs": [],
      "stateMutability": "payable",
      "type": "function"
    },
    {
      "inputs": [],
      "name": "run3",
      "outputs": [],
      "stateMutability": "nonpayable",
      "type": "function"
    },
    {
      "inputs": [],
      "name": "run3Inner",
      "outputs": [],
      "stateMutability": "payable",
      "type": "function"
    }
  ],
  "bytecode": "0x608060405234801561001057600080fd5b506103c8806100206000396000f3fe60806040526004361061003f5760003560e01c8063c040622614610044578063d4f639ea1461004e578063e22a5d5b14610056578063fb7897361461006b575b600080fd5b61004c610073565b005b61004c610174565b34801561006257600080fd5b5061004c610226565b61004c6102e1565b604051600160621b906060906000906330b4ef7d60e01b9061009b908590859060240161032d565b60408051601f198184030181529181526020820180516001600160e01b03166001600160e01b0319909416939093179092529051909150600090600661011160931b01906100ea908490610376565b6000604051808303816000865af19150503d8060008114610127576040519150601f19603f3d011682016040523d82523d6000602084013e61012c565b606091505b505090508061016e5760405162461bcd60e51b815260206004820152600960248201526810d85b1b0811985a5b60ba1b60448201526064015b60405180910390fd5b50505050565b604051600160621b9060609060009063bea05ee360e01b9061019c908590859060240161032d565b60408051601f198184030181529181526020820180516001600160e01b03166001600160e01b0319909416939093179092529051909150600090600661011160931b01906101eb908490610376565b600060405180830381855afa9150503d8060008114610127576040519150601f19603f3d011682016040523d82523d6000602084013e61012c565b60408051600481526024810182526020810180516001600160e01b0316637dbc4b9b60e11b17905290516000903090610260908490610376565b600060405180830381855afa9150503d806000811461029b576040519150601f19603f3d011682016040523d82523d6000602084013e6102a0565b606091505b50509050806102dd5760405162461bcd60e51b815260206004820152600960248201526810d85b1b0811985a5b60ba1b6044820152606401610165565b5050565b604051600160621b9060609060009063bea05ee360e01b9061009b908590859060240161032d565b60005b8381101561032457818101518382015260200161030c565b50506000910152565b6bffffffffffffffffffffffff19831681526040602082015260008251806040840152610361816060850160208701610309565b601f01601f1916919091016060019392505050565b60008251610388818460208701610309565b919091019291505056fea2646970667358221220124acba961c0cdb80521483a1ff3486f413a4c7e71e4c72f2960196d63992fa064736f6c63430008130033",
  "linkReferences": {},
  "deployedLinkReferences": {}
}