{
  "_format": "hh-sol-artifact-1",
  "contractName": "CallTools",
  "sourceName": "contracts/CallTools.sol",
  "abi": [
    {
      "inputs": [
        {
          "internalType": "address",
          "name": "receiver",
          "type": "address"
        },
        {
          "internalType": "bytes",
          "name": "data",
          "type": "bytes"
        },
        {
          "internalType": "uint8",
          "name": "returnFlag",
          "type": "uint8"
        }
      ],
      "name": "callAnother",
      "outputs": [],
      "stateMutability": "nonpayable",
      "type": "function"
    },
    {
      "inputs": [],
      "name": "fail",
      "outputs": [],
      "stateMutability": "pure",
      "type": "function"
    },
    {
      "inputs": [
        {
          "internalType": "bytes[]",
          "name": "callTasks",
          "type": "bytes[]"
        }
      ],
      "name": "multiCall",
      "outputs": [],
      "stateMutability": "nonpayable",
      "type": "function"
    },
    {
      "inputs": [
        {
          "internalType": "bytes[]",
          "name": "callTasks",
          "type": "bytes[]"
        },
        {
          "internalType": "address[]",
          "name": "receiver",
          "type": "address[]"
        }
      ],
      "name": "multiCallExternal",
      "outputs": [],
      "stateMutability": "nonpayable",
      "type": "function"
    },
    {
      "inputs": [
        {
          "internalType": "bytes[]",
          "name": "callTasks",
          "type": "bytes[]"
        },
        {
          "internalType": "address[]",
          "name": "receiver",
          "type": "address[]"
        },
        {
          "internalType": "uint8[]",
          "name": "returnFlags",
          "type": "uint8[]"
        }
      ],
      "name": "multiCallExternalWithFlag",
      "outputs": [],
      "stateMutability": "nonpayable",
      "type": "function"
    },
    {
      "inputs": [
        {
          "internalType": "bytes[]",
          "name": "callTasks",
          "type": "bytes[]"
        },
        {
          "internalType": "uint8[]",
          "name": "returnFlags",
          "type": "uint8[]"
        }
      ],
      "name": "multiCallWithFlag",
      "outputs": [],
      "stateMutability": "nonpayable",
      "type": "function"
    },
    {
      "inputs": [
        {
          "internalType": "bytes",
          "name": "data",
          "type": "bytes"
        },
        {
          "internalType": "uint256",
          "name": "restLevel",
          "type": "uint256"
        },
        {
          "internalType": "uint8[]",
          "name": "returnFlags",
          "type": "uint8[]"
        }
      ],
      "name": "recursiveCall",
      "outputs": [],
      "stateMutability": "nonpayable",
      "type": "function"
    },
    {
      "inputs": [
        {
          "internalType": "address payable",
          "name": "addr",
          "type": "address"
        }
      ],
      "name": "selfDestruct",
      "outputs": [],
      "stateMutability": "nonpayable",
      "type": "function"
    },
    {
      "inputs": [],
      "name": "selfRevert",
      "outputs": [],
      "stateMutability": "pure",
      "type": "function"
    }
  ],
  "bytecode": "0x608060405234801561001057600080fd5b50610e25806100206000396000f3fe608060405234801561001057600080fd5b50600436106100935760003560e01c80633f5a0bdd116100665780633f5a0bdd146100e6578063653efc07146100f957806372a36f1f1461010c578063824b9e3214610114578063a9cc47181461012757600080fd5b80630719706d146100985780631fbf703b146100ad578063348a0cdc146100c05780633e8eb32b146100d3575b600080fd5b6100ab6100a63660046109b5565b61012c565b005b6100ab6100bb366004610a94565b6101f7565b6100ab6100ce366004610b1b565b610343565b6100ab6100e1366004610b57565b6103dd565b6100ab6100f4366004610bac565b6104f7565b6100ab610107366004610bd0565b610503565b6100ab600080fd5b6100ab610122366004610c29565b6105bb565b6100abfe5b80518251146101565760405162461bcd60e51b815260040161014d90610c88565b60405180910390fd5b600082516001600160401b03811115610171576101716107d6565b60405190808252806020026020018201604052801561019a578160200160208202803683370190505b50905060005b83518110156101e657308282815181106101bc576101bc610ccb565b6001600160a01b0390921660209283029190910190910152806101de81610cf7565b9150506101a0565b506101f28382846101f7565b505050565b80518351146102185760405162461bcd60e51b815260040161014d90610c88565b81518351146102695760405162461bcd60e51b815260206004820152601f60248201527f496e636f6e73697374656e74206c656e677468206f6620726563656976657200604482015260640161014d565b60005b835181101561033d57600083828151811061028957610289610ccb565b60200260200101516001600160a01b03168583815181106102ac576102ac610ccb565b60200260200101516040516102c19190610d34565b6000604051808303816000865af19150503d80600081146102fe576040519150601f19603f3d011682016040523d82523d6000602084013e610303565b606091505b5050905061032a8184848151811061031d5761031d610ccb565b60200260200101516106b8565b508061033581610cf7565b91505061026c565b50505050565b600081516001600160401b0381111561035e5761035e6107d6565b604051908082528060200260200182016040528015610387578160200160208202803683370190505b50905060005b82518110156103ce5760008282815181106103aa576103aa610ccb565b60ff90921660209283029190910190910152806103c681610cf7565b91505061038d565b506103d9828261012c565b5050565b6000600183106104895730846103f4600186610d50565b8460405160240161040793929190610d69565b60408051601f198184030181529181526020820180516001600160e01b0316631732ec5160e01b1790525161043c9190610d34565b6000604051808303816000865af19150503d8060008114610479576040519150601f19603f3d011682016040523d82523d6000602084013e61047e565b606091505b5050809150506104e1565b6040513090610499908690610d34565b6000604051808303816000865af19150503d80600081146104d6576040519150601f19603f3d011682016040523d82523d6000602084013e6104db565b606091505b50909150505b61033d8183858151811061031d5761031d610ccb565b806001600160a01b0316ff5b80518251146105245760405162461bcd60e51b815260040161014d90610c88565b600082516001600160401b0381111561053f5761053f6107d6565b604051908082528060200260200182016040528015610568578160200160208202803683370190505b50905060005b83518110156105af57600082828151811061058b5761058b610ccb565b60ff90921660209283029190910190910152806105a781610cf7565b91505061056e565b506101f28383836101f7565b604080516001808252818301909252600091816020015b60608152602001906001900390816105d257905050905082816000815181106105fd576105fd610ccb565b6020908102919091010152604080516001808252818301909252600091816020016020820280368337019050509050848160008151811061064057610640610ccb565b6001600160a01b039290921660209283029190910190910152604080516001808252818301909252600091816020016020820280368337019050509050838160008151811061069157610691610ccb565b602002602001019060ff16908160ff16815250506106b08383836101f7565b505050505050565b81610724578060ff166003036106cc575050565b8060ff1660000361071f5760405162461bcd60e51b815260206004820181905260248201527f5265766572742062656361757365206f6620657865637574696f6e206661696c604482015260640161014d565b610783565b8060ff166002036107835760405162461bcd60e51b8152602060048201526024808201527f5265766572742062656361757365206f6620756e6578706563746564207375636044820152636365737360e01b606482015260840161014d565b8060ff166004036103d95760405162461bcd60e51b815260206004820152601d60248201527f5265766572742062656361757365206f662072657475726e20666c6167000000604482015260640161014d565b634e487b7160e01b600052604160045260246000fd5b604051601f8201601f191681016001600160401b0381118282101715610814576108146107d6565b604052919050565b60006001600160401b03821115610835576108356107d6565b5060051b60200190565b600082601f83011261085057600080fd5b81356001600160401b03811115610869576108696107d6565b61087c601f8201601f19166020016107ec565b81815284602083860101111561089157600080fd5b816020850160208301376000918101602001919091529392505050565b600082601f8301126108bf57600080fd5b813560206108d46108cf8361081c565b6107ec565b82815260059290921b840181019181810190868411156108f357600080fd5b8286015b848110156109325780356001600160401b038111156109165760008081fd5b6109248986838b010161083f565b8452509183019183016108f7565b509695505050505050565b803560ff8116811461094e57600080fd5b919050565b600082601f83011261096457600080fd5b813560206109746108cf8361081c565b82815260059290921b8401810191818101908684111561099357600080fd5b8286015b84811015610932576109a88161093d565b8352918301918301610997565b600080604083850312156109c857600080fd5b82356001600160401b03808211156109df57600080fd5b6109eb868387016108ae565b93506020850135915080821115610a0157600080fd5b50610a0e85828601610953565b9150509250929050565b6001600160a01b0381168114610a2d57600080fd5b50565b600082601f830112610a4157600080fd5b81356020610a516108cf8361081c565b82815260059290921b84018101918181019086841115610a7057600080fd5b8286015b84811015610932578035610a8781610a18565b8352918301918301610a74565b600080600060608486031215610aa957600080fd5b83356001600160401b0380821115610ac057600080fd5b610acc878388016108ae565b94506020860135915080821115610ae257600080fd5b610aee87838801610a30565b93506040860135915080821115610b0457600080fd5b50610b1186828701610953565b9150509250925092565b600060208284031215610b2d57600080fd5b81356001600160401b03811115610b4357600080fd5b610b4f848285016108ae565b949350505050565b600080600060608486031215610b6c57600080fd5b83356001600160401b0380821115610b8357600080fd5b610b8f8783880161083f565b9450602086013593506040860135915080821115610b0457600080fd5b600060208284031215610bbe57600080fd5b8135610bc981610a18565b9392505050565b60008060408385031215610be357600080fd5b82356001600160401b0380821115610bfa57600080fd5b610c06868387016108ae565b93506020850135915080821115610c1c57600080fd5b50610a0e85828601610a30565b600080600060608486031215610c3e57600080fd5b8335610c4981610a18565b925060208401356001600160401b03811115610c6457600080fd5b610c708682870161083f565b925050610c7f6040850161093d565b90509250925092565b60208082526023908201527f496e636f6e73697374656e74206c656e677468206f662072657475726e20666c60408201526261677360e81b606082015260800190565b634e487b7160e01b600052603260045260246000fd5b634e487b7160e01b600052601160045260246000fd5b600060018201610d0957610d09610ce1565b5060010190565b60005b83811015610d2b578181015183820152602001610d13565b50506000910152565b60008251610d46818460208701610d10565b9190910192915050565b81810381811115610d6357610d63610ce1565b92915050565b60608152600084518060608401526020610d898260808601838a01610d10565b601f19601f83011684019150608082018682860152608085840301604086015280865180835260a0850191508388019450600092505b80831015610de257845160ff168252938301936001929092019190830190610dbf565b509897505050505050505056fea2646970667358221220df6220dfea1c15e8c0907e63580112a3ccf67081cb628bf2b6748f2eebcbcb3564736f6c63430008130033",
  "linkReferences": {},
  "deployedLinkReferences": {}
}