{
  "_format": "hh-sol-artifact-1",
  "contractName": "StorageExt",
  "sourceName": "contracts/StorageExt.sol",
  "abi": [
    {
      "inputs": [
        {
          "internalType": "uint64",
          "name": "index",
          "type": "uint64"
        },
        {
          "internalType": "uint256",
          "name": "value",
          "type": "uint256"
        }
      ],
      "name": "assertValue",
      "outputs": [],
      "stateMutability": "view",
      "type": "function"
    },
    {
      "inputs": [
        {
          "internalType": "address",
          "name": "receiver",
          "type": "address"
        },
        {
          "internalType": "bytes",
          "name": "data",
          "type": "bytes"
        },
        {
          "internalType": "uint8",
          "name": "returnFlag",
          "type": "uint8"
        }
      ],
      "name": "callAnother",
      "outputs": [],
      "stateMutability": "nonpayable",
      "type": "function"
    },
    {
      "inputs": [
        {
          "internalType": "uint64",
          "name": "index",
          "type": "uint64"
        }
      ],
      "name": "change",
      "outputs": [],
      "stateMutability": "nonpayable",
      "type": "function"
    },
    {
      "inputs": [],
      "name": "fail",
      "outputs": [],
      "stateMutability": "pure",
      "type": "function"
    },
    {
      "inputs": [
        {
          "internalType": "address",
          "name": "addr",
          "type": "address"
        }
      ],
      "name": "getSponsored",
      "outputs": [
        {
          "internalType": "bool",
          "name": "",
          "type": "bool"
        }
      ],
      "stateMutability": "view",
      "type": "function"
    },
    {
      "inputs": [
        {
          "internalType": "bytes[]",
          "name": "callTasks",
          "type": "bytes[]"
        }
      ],
      "name": "multiCall",
      "outputs": [],
      "stateMutability": "nonpayable",
      "type": "function"
    },
    {
      "inputs": [
        {
          "internalType": "bytes[]",
          "name": "callTasks",
          "type": "bytes[]"
        },
        {
          "internalType": "address[]",
          "name": "receiver",
          "type": "address[]"
        }
      ],
      "name": "multiCallExternal",
      "outputs": [],
      "stateMutability": "nonpayable",
      "type": "function"
    },
    {
      "inputs": [
        {
          "internalType": "bytes[]",
          "name": "callTasks",
          "type": "bytes[]"
        },
        {
          "internalType": "address[]",
          "name": "receiver",
          "type": "address[]"
        },
        {
          "internalType": "uint8[]",
          "name": "returnFlags",
          "type": "uint8[]"
        }
      ],
      "name": "multiCallExternalWithFlag",
      "outputs": [],
      "stateMutability": "nonpayable",
      "type": "function"
    },
    {
      "inputs": [
        {
          "internalType": "bytes[]",
          "name": "callTasks",
          "type": "bytes[]"
        },
        {
          "internalType": "uint8[]",
          "name": "returnFlags",
          "type": "uint8[]"
        }
      ],
      "name": "multiCallWithFlag",
      "outputs": [],
      "stateMutability": "nonpayable",
      "type": "function"
    },
    {
      "inputs": [
        {
          "internalType": "bytes",
          "name": "data",
          "type": "bytes"
        },
        {
          "internalType": "uint256",
          "name": "restLevel",
          "type": "uint256"
        },
        {
          "internalType": "uint8[]",
          "name": "returnFlags",
          "type": "uint8[]"
        }
      ],
      "name": "recursiveCall",
      "outputs": [],
      "stateMutability": "nonpayable",
      "type": "function"
    },
    {
      "inputs": [
        {
          "internalType": "uint64",
          "name": "index",
          "type": "uint64"
        }
      ],
      "name": "reset",
      "outputs": [],
      "stateMutability": "nonpayable",
      "type": "function"
    },
    {
      "inputs": [
        {
          "internalType": "address",
          "name": "addr",
          "type": "address"
        }
      ],
      "name": "resetSponsored",
      "outputs": [],
      "stateMutability": "nonpayable",
      "type": "function"
    },
    {
      "inputs": [
        {
          "internalType": "address payable",
          "name": "addr",
          "type": "address"
        }
      ],
      "name": "selfDestruct",
      "outputs": [],
      "stateMutability": "nonpayable",
      "type": "function"
    },
    {
      "inputs": [],
      "name": "selfRevert",
      "outputs": [],
      "stateMutability": "pure",
      "type": "function"
    },
    {
      "inputs": [
        {
          "internalType": "uint64",
          "name": "index",
          "type": "uint64"
        }
      ],
      "name": "set",
      "outputs": [],
      "stateMutability": "nonpayable",
      "type": "function"
    },
    {
      "inputs": [
        {
          "internalType": "address",
          "name": "addr",
          "type": "address"
        }
      ],
      "name": "setSponsored",
      "outputs": [],
      "stateMutability": "nonpayable",
      "type": "function"
    }
  ],
  "bytecode": "0x608060405234801561001057600080fd5b50611200806100206000396000f3fe608060405234801561001057600080fd5b50600436106101005760003560e01c8063653efc0711610097578063a4b8e66911610066578063a4b8e669146101f8578063a9cc47181461021f578063d9a9811614610224578063e365981c1461023757600080fd5b8063653efc07146101b757806370172948146101ca57806372a36f1f146101dd578063824b9e32146101e557600080fd5b8063348a0cdc116100d3578063348a0cdc1461016b5780633e8eb32b1461017e5780633f5a0bdd1461019157806362ad67e8146101a457600080fd5b80630719706d1461010557806307c488ff1461011a5780631d8c311f1461013a5780631fbf703b14610158575b600080fd5b610118610113366004610ccb565b610255565b005b610118610128366004610d45565b6001600160401b031680546001019055565b610118610148366004610d45565b60016001600160401b0390911655565b610118610166366004610de3565b610320565b610118610179366004610e6a565b61046c565b61011861018c366004610ea6565b610506565b61011861019f366004610efb565b610620565b6101186101b2366004610efb565b61062c565b6101186101c5366004610f18565b6106db565b6101186101d8366004610efb565b610793565b610118600080fd5b6101186101f3366004610f71565b61080c565b61020b610206366004610efb565b610901565b604051901515815260200160405180910390f35b610118fe5b610118610232366004610fd0565b610980565b610118610245366004610d45565b60006001600160401b0390911655565b805182511461027f5760405162461bcd60e51b815260040161027690610ffa565b60405180910390fd5b600082516001600160401b0381111561029a5761029a610aec565b6040519080825280602002602001820160405280156102c3578160200160208202803683370190505b50905060005b835181101561030f57308282815181106102e5576102e561103d565b6001600160a01b03909216602092830291909101909101528061030781611069565b9150506102c9565b5061031b838284610320565b505050565b80518351146103415760405162461bcd60e51b815260040161027690610ffa565b81518351146103925760405162461bcd60e51b815260206004820152601f60248201527f496e636f6e73697374656e74206c656e677468206f66207265636569766572006044820152606401610276565b60005b83518110156104665760008382815181106103b2576103b261103d565b60200260200101516001600160a01b03168583815181106103d5576103d561103d565b60200260200101516040516103ea91906110a6565b6000604051808303816000865af19150503d8060008114610427576040519150601f19603f3d011682016040523d82523d6000602084013e61042c565b606091505b50509050610453818484815181106104465761044661103d565b60200260200101516109ce565b508061045e81611069565b915050610395565b50505050565b600081516001600160401b0381111561048757610487610aec565b6040519080825280602002602001820160405280156104b0578160200160208202803683370190505b50905060005b82518110156104f75760008282815181106104d3576104d361103d565b60ff90921660209283029190910190910152806104ef81611069565b9150506104b6565b506105028282610255565b5050565b6000600183106105b257308461051d6001866110c2565b84604051602401610530939291906110d5565b60408051601f198184030181529181526020820180516001600160e01b0316631732ec5160e01b1790525161056591906110a6565b6000604051808303816000865af19150503d80600081146105a2576040519150601f19603f3d011682016040523d82523d6000602084013e6105a7565b606091505b50508091505061060a565b60405130906105c29086906110a6565b6000604051808303816000865af19150503d80600081146105ff576040519150601f19603f3d011682016040523d82523d6000602084013e610604565b606091505b50909150505b610466818385815181106104465761044661103d565b806001600160a01b0316ff5b6040805160018082528183019092526000916020808301908036833701905050905081816000815181106106625761066261103d565b6001600160a01b039092166020928302919091019091015260405163694996db60e11b8152600161011160931b019063d2932db6906106a590849060040161115b565b600060405180830381600087803b1580156106bf57600080fd5b505af11580156106d3573d6000803e3d6000fd5b505050505050565b80518251146106fc5760405162461bcd60e51b815260040161027690610ffa565b600082516001600160401b0381111561071757610717610aec565b604051908082528060200260200182016040528015610740578160200160208202803683370190505b50905060005b83518110156107875760008282815181106107635761076361103d565b60ff909216602092830291909101909101528061077f81611069565b915050610746565b5061031b838383610320565b6040805160018082528183019092526000916020808301908036833701905050905081816000815181106107c9576107c961103d565b6001600160a01b0390921660209283029190910190910152604051630809469f60e11b8152600161011160931b01906310128d3e906106a590849060040161115b565b604080516001808252818301909252600091816020015b6060815260200190600190039081610823579050509050828160008151811061084e5761084e61103d565b602090810291909101015260408051600180825281830190925260009181602001602082028036833701905050905084816000815181106108915761089161103d565b6001600160a01b03929092166020928302919091019091015260408051600180825281830190925260009181602001602082028036833701905050905083816000815181106108e2576108e261103d565b602002602001019060ff16908160ff16815250506106d3838383610320565b604051635b59a93960e11b81523060048201526001600160a01b0382166024820152600090600161011160931b019063b6b3527290604401602060405180830381865afa158015610956573d6000803e3d6000fd5b505050506040513d601f19601f8201168201806040525081019061097a91906111a8565b92915050565b6001600160401b03821680548281146104665760405162461bcd60e51b815260206004820152601060248201526f556e65787065637465642076616c756560801b6044820152606401610276565b81610a3a578060ff166003036109e2575050565b8060ff16600003610a355760405162461bcd60e51b815260206004820181905260248201527f5265766572742062656361757365206f6620657865637574696f6e206661696c6044820152606401610276565b610a99565b8060ff16600203610a995760405162461bcd60e51b8152602060048201526024808201527f5265766572742062656361757365206f6620756e6578706563746564207375636044820152636365737360e01b6064820152608401610276565b8060ff166004036105025760405162461bcd60e51b815260206004820152601d60248201527f5265766572742062656361757365206f662072657475726e20666c61670000006044820152606401610276565b634e487b7160e01b600052604160045260246000fd5b604051601f8201601f191681016001600160401b0381118282101715610b2a57610b2a610aec565b604052919050565b60006001600160401b03821115610b4b57610b4b610aec565b5060051b60200190565b600082601f830112610b6657600080fd5b81356001600160401b03811115610b7f57610b7f610aec565b610b92601f8201601f1916602001610b02565b818152846020838601011115610ba757600080fd5b816020850160208301376000918101602001919091529392505050565b600082601f830112610bd557600080fd5b81356020610bea610be583610b32565b610b02565b82815260059290921b84018101918181019086841115610c0957600080fd5b8286015b84811015610c485780356001600160401b03811115610c2c5760008081fd5b610c3a8986838b0101610b55565b845250918301918301610c0d565b509695505050505050565b803560ff81168114610c6457600080fd5b919050565b600082601f830112610c7a57600080fd5b81356020610c8a610be583610b32565b82815260059290921b84018101918181019086841115610ca957600080fd5b8286015b84811015610c4857610cbe81610c53565b8352918301918301610cad565b60008060408385031215610cde57600080fd5b82356001600160401b0380821115610cf557600080fd5b610d0186838701610bc4565b93506020850135915080821115610d1757600080fd5b50610d2485828601610c69565b9150509250929050565b80356001600160401b0381168114610c6457600080fd5b600060208284031215610d5757600080fd5b610d6082610d2e565b9392505050565b6001600160a01b0381168114610d7c57600080fd5b50565b600082601f830112610d9057600080fd5b81356020610da0610be583610b32565b82815260059290921b84018101918181019086841115610dbf57600080fd5b8286015b84811015610c48578035610dd681610d67565b8352918301918301610dc3565b600080600060608486031215610df857600080fd5b83356001600160401b0380821115610e0f57600080fd5b610e1b87838801610bc4565b94506020860135915080821115610e3157600080fd5b610e3d87838801610d7f565b93506040860135915080821115610e5357600080fd5b50610e6086828701610c69565b9150509250925092565b600060208284031215610e7c57600080fd5b81356001600160401b03811115610e9257600080fd5b610e9e84828501610bc4565b949350505050565b600080600060608486031215610ebb57600080fd5b83356001600160401b0380821115610ed257600080fd5b610ede87838801610b55565b9450602086013593506040860135915080821115610e5357600080fd5b600060208284031215610f0d57600080fd5b8135610d6081610d67565b60008060408385031215610f2b57600080fd5b82356001600160401b0380821115610f4257600080fd5b610f4e86838701610bc4565b93506020850135915080821115610f6457600080fd5b50610d2485828601610d7f565b600080600060608486031215610f8657600080fd5b8335610f9181610d67565b925060208401356001600160401b03811115610fac57600080fd5b610fb886828701610b55565b925050610fc760408501610c53565b90509250925092565b60008060408385031215610fe357600080fd5b610fec83610d2e565b946020939093013593505050565b60208082526023908201527f496e636f6e73697374656e74206c656e677468206f662072657475726e20666c60408201526261677360e81b606082015260800190565b634e487b7160e01b600052603260045260246000fd5b634e487b7160e01b600052601160045260246000fd5b60006001820161107b5761107b611053565b5060010190565b60005b8381101561109d578181015183820152602001611085565b50506000910152565b600082516110b8818460208701611082565b9190910192915050565b8181038181111561097a5761097a611053565b606081526000845180606084015260206110f58260808601838a01611082565b601f19601f83011684019150608082018682860152608085840301604086015280865180835260a0850191508388019450600092505b8083101561114e57845160ff16825293830193600192909201919083019061112b565b5098975050505050505050565b6020808252825182820181905260009190848201906040850190845b8181101561119c5783516001600160a01b031683529284019291840191600101611177565b50909695505050505050565b6000602082840312156111ba57600080fd5b81518015158114610d6057600080fdfea2646970667358221220bd1e84dc4b8c5d42137de783ae26e17d1e88fc5eefada98516a2e6a3831796d464736f6c63430008130033",
  "linkReferences": {},
  "deployedLinkReferences": {}
}