{
  "_format": "hh-sol-artifact-1",
  "contractName": "SponsorTools",
  "sourceName": "contracts/SponsorTools.sol",
  "abi": [
    {
      "inputs": [
        {
          "internalType": "address",
          "name": "addr",
          "type": "address"
        }
      ],
      "name": "getSponsored",
      "outputs": [
        {
          "internalType": "bool",
          "name": "",
          "type": "bool"
        }
      ],
      "stateMutability": "view",
      "type": "function"
    },
    {
      "inputs": [
        {
          "internalType": "address",
          "name": "addr",
          "type": "address"
        }
      ],
      "name": "resetSponsored",
      "outputs": [],
      "stateMutability": "nonpayable",
      "type": "function"
    },
    {
      "inputs": [
        {
          "internalType": "address",
          "name": "addr",
          "type": "address"
        }
      ],
      "name": "setSponsored",
      "outputs": [],
      "stateMutability": "nonpayable",
      "type": "function"
    }
  ],
  "bytecode": "0x608060405234801561001057600080fd5b50610327806100206000396000f3fe608060405234801561001057600080fd5b50600436106100415760003560e01c806362ad67e814610046578063701729481461005b578063a4b8e6691461006e575b600080fd5b61005961005436600461023c565b610095565b005b61005961006936600461023c565b610144565b61008161007c36600461023c565b6101bd565b604051901515815260200160405180910390f35b6040805160018082528183019092526000916020808301908036833701905050905081816000815181106100cb576100cb61026c565b6001600160a01b039092166020928302919091019091015260405163694996db60e11b8152600161011160931b019063d2932db69061010e908490600401610282565b600060405180830381600087803b15801561012857600080fd5b505af115801561013c573d6000803e3d6000fd5b505050505050565b60408051600180825281830190925260009160208083019080368337019050509050818160008151811061017a5761017a61026c565b6001600160a01b0390921660209283029190910190910152604051630809469f60e11b8152600161011160931b01906310128d3e9061010e908490600401610282565b604051635b59a93960e11b81523060048201526001600160a01b0382166024820152600090600161011160931b019063b6b3527290604401602060405180830381865afa158015610212573d6000803e3d6000fd5b505050506040513d601f19601f8201168201806040525081019061023691906102cf565b92915050565b60006020828403121561024e57600080fd5b81356001600160a01b038116811461026557600080fd5b9392505050565b634e487b7160e01b600052603260045260246000fd5b6020808252825182820181905260009190848201906040850190845b818110156102c35783516001600160a01b03168352928401929184019160010161029e565b50909695505050505050565b6000602082840312156102e157600080fd5b8151801515811461026557600080fdfea264697066735822122066258c075c8e14f47ce803777c68e9069ac9ce41c859e717279297fe20186d6c64736f6c63430008130033",
  "linkReferences": {},
  "deployedLinkReferences": {}
}